{
  "abi": [
    {
      "inputs": [
        {
          "internalType": "string",
          "name": "_uri",
          "type": "string"
        },
        {
          "internalType": "uint256",
          "name": "_rentPerDay",
          "type": "uint256"
        },
        {
          "internalType": "string",
          "name": "_description",
          "type": "string"
        },
        {
          "internalType": "enum PropertyType",
          "name": "_propertyType",
          "type": "uint8"
        },
        {
          "internalType": "address",
          "name": "_propertyOwner",
          "type": "address"
        },
        {
          "internalType": "string",
          "name": "_realWorldAddress",
          "type": "string"
        }
      ],
      "stateMutability": "nonpayable",
      "type": "constructor"
    },
    {
      "inputs": [
        {
          "internalType": "uint256",
          "name": "day",
          "type": "uint256"
        },
        {
          "internalType": "address",
          "name": "tenant",
          "type": "address"
        }
      ],
      "name": "BookingFailed",
      "type": "error"
    },
    {
      "inputs": [
        {
          "internalType": "uint256",
          "name": "day",
          "type": "uint256"
        },
        {
          "internalType": "address",
          "name": "tenant",
          "type": "address"
        }
      ],
      "name": "CheckInFailed",
      "type": "error"
    },
    {
      "inputs": [
        {
          "internalType": "uint256",
          "name": "day",
          "type": "uint256"
        },
        {
          "internalType": "address",
          "name": "tenant",
          "type": "address"
        },
        {
          "internalType": "uint256",
          "name": "value",
          "type": "uint256"
        }
      ],
      "name": "InvalidValueForRent",
      "type": "error"
    },
    {
      "anonymous": false,
      "inputs": [
        {
          "indexed": true,
          "internalType": "address",
          "name": "owner",
          "type": "address"
        },
        {
          "indexed": true,
          "internalType": "address",
          "name": "approved",
          "type": "address"
        },
        {
          "indexed": true,
          "internalType": "uint256",
          "name": "tokenId",
          "type": "uint256"
        }
      ],
      "name": "Approval",
      "type": "event"
    },
    {
      "anonymous": false,
      "inputs": [
        {
          "indexed": true,
          "internalType": "address",
          "name": "owner",
          "type": "address"
        },
        {
          "indexed": true,
          "internalType": "address",
          "name": "operator",
          "type": "address"
        },
        {
          "indexed": false,
          "internalType": "bool",
          "name": "approved",
          "type": "bool"
        }
      ],
      "name": "ApprovalForAll",
      "type": "event"
    },
    {
      "anonymous": false,
      "inputs": [
        {
          "indexed": false,
          "internalType": "uint256",
          "name": "_fromTokenId",
          "type": "uint256"
        },
        {
          "indexed": false,
          "internalType": "uint256",
          "name": "_toTokenId",
          "type": "uint256"
        }
      ],
      "name": "BatchMetadataUpdate",
      "type": "event"
    },
    {
      "anonymous": false,
      "inputs": [
        {
          "indexed": false,
          "internalType": "uint256",
          "name": "day",
          "type": "uint256"
        },
        {
          "indexed": false,
          "internalType": "address",
          "name": "tenant",
          "type": "address"
        }
      ],
      "name": "BookingError",
      "type": "event"
    },
    {
      "anonymous": false,
      "inputs": [
        {
          "indexed": false,
          "internalType": "uint256",
          "name": "day",
          "type": "uint256"
        },
        {
          "indexed": false,
          "internalType": "address",
          "name": "tenant",
          "type": "address"
        }
      ],
      "name": "CheckIn",
      "type": "event"
    },
    {
      "anonymous": false,
      "inputs": [
        {
          "indexed": false,
          "internalType": "uint256",
          "name": "day",
          "type": "uint256"
        },
        {
          "indexed": false,
          "internalType": "address",
          "name": "tenant",
          "type": "address"
        }
      ],
      "name": "CheckInError",
      "type": "event"
    },
    {
      "anonymous": false,
      "inputs": [
        {
          "indexed": false,
          "internalType": "uint256",
          "name": "_tokenId",
          "type": "uint256"
        }
      ],
      "name": "MetadataUpdate",
      "type": "event"
    },
    {
      "anonymous": false,
      "inputs": [
        {
          "indexed": false,
          "internalType": "uint256",
          "name": "day",
          "type": "uint256"
        },
        {
          "indexed": false,
          "internalType": "address",
          "name": "tenant",
          "type": "address"
        }
      ],
      "name": "NewBooking",
      "type": "event"
    },
    {
      "anonymous": false,
      "inputs": [
        {
          "indexed": true,
          "internalType": "address",
          "name": "previousOwner",
          "type": "address"
        },
        {
          "indexed": true,
          "internalType": "address",
          "name": "newOwner",
          "type": "address"
        }
      ],
      "name": "OwnershipTransferred",
      "type": "event"
    },
    {
      "anonymous": false,
      "inputs": [
        {
          "indexed": true,
          "internalType": "bytes32",
          "name": "role",
          "type": "bytes32"
        },
        {
          "indexed": true,
          "internalType": "bytes32",
          "name": "previousAdminRole",
          "type": "bytes32"
        },
        {
          "indexed": true,
          "internalType": "bytes32",
          "name": "newAdminRole",
          "type": "bytes32"
        }
      ],
      "name": "RoleAdminChanged",
      "type": "event"
    },
    {
      "anonymous": false,
      "inputs": [
        {
          "indexed": true,
          "internalType": "bytes32",
          "name": "role",
          "type": "bytes32"
        },
        {
          "indexed": true,
          "internalType": "address",
          "name": "account",
          "type": "address"
        },
        {
          "indexed": true,
          "internalType": "address",
          "name": "sender",
          "type": "address"
        }
      ],
      "name": "RoleGranted",
      "type": "event"
    },
    {
      "anonymous": false,
      "inputs": [
        {
          "indexed": true,
          "internalType": "bytes32",
          "name": "role",
          "type": "bytes32"
        },
        {
          "indexed": true,
          "internalType": "address",
          "name": "account",
          "type": "address"
        },
        {
          "indexed": true,
          "internalType": "address",
          "name": "sender",
          "type": "address"
        }
      ],
      "name": "RoleRevoked",
      "type": "event"
    },
    {
      "anonymous": false,
      "inputs": [
        {
          "indexed": true,
          "internalType": "address",
          "name": "from",
          "type": "address"
        },
        {
          "indexed": true,
          "internalType": "address",
          "name": "to",
          "type": "address"
        },
        {
          "indexed": true,
          "internalType": "uint256",
          "name": "tokenId",
          "type": "uint256"
        }
      ],
      "name": "Transfer",
      "type": "event"
    },
    {
      "inputs": [],
      "name": "DEFAULT_ADMIN_ROLE",
      "outputs": [
        {
          "internalType": "bytes32",
          "name": "",
          "type": "bytes32"
        }
      ],
      "stateMutability": "view",
      "type": "function"
    },
    {
      "inputs": [],
      "name": "OWNER_ROLE",
      "outputs": [
        {
          "internalType": "bytes32",
          "name": "",
          "type": "bytes32"
        }
      ],
      "stateMutability": "view",
      "type": "function"
    },
    {
      "inputs": [
        {
          "internalType": "address",
          "name": "_newOwner",
          "type": "address"
        }
      ],
      "name": "addNewOwner",
      "outputs": [],
      "stateMutability": "nonpayable",
      "type": "function"
    },
    {
      "inputs": [
        {
          "internalType": "address",
          "name": "to",
          "type": "address"
        },
        {
          "internalType": "uint256",
          "name": "tokenId",
          "type": "uint256"
        }
      ],
      "name": "approve",
      "outputs": [],
      "stateMutability": "nonpayable",
      "type": "function"
    },
    {
      "inputs": [
        {
          "internalType": "address",
          "name": "owner",
          "type": "address"
        }
      ],
      "name": "balanceOf",
      "outputs": [
        {
          "internalType": "uint256",
          "name": "",
          "type": "uint256"
        }
      ],
      "stateMutability": "view",
      "type": "function"
    },
    {
      "inputs": [
        {
          "internalType": "uint256",
          "name": "_day",
          "type": "uint256"
        }
      ],
      "name": "booking",
      "outputs": [],
      "stateMutability": "payable",
      "type": "function"
    },
    {
      "inputs": [
        {
          "internalType": "uint256",
          "name": "day",
          "type": "uint256"
        },
        {
          "internalType": "address",
          "name": "_tenant",
          "type": "address"
        }
      ],
      "name": "checkIn",
      "outputs": [],
      "stateMutability": "nonpayable",
      "type": "function"
    },
    {
      "inputs": [
        {
          "internalType": "uint256",
          "name": "tokenId",
          "type": "uint256"
        }
      ],
      "name": "getApproved",
      "outputs": [
        {
          "internalType": "address",
          "name": "",
          "type": "address"
        }
      ],
      "stateMutability": "view",
      "type": "function"
    },
    {
      "inputs": [
        {
          "internalType": "bytes32",
          "name": "role",
          "type": "bytes32"
        }
      ],
      "name": "getRoleAdmin",
      "outputs": [
        {
          "internalType": "bytes32",
          "name": "",
          "type": "bytes32"
        }
      ],
      "stateMutability": "view",
      "type": "function"
    },
    {
      "inputs": [
        {
          "internalType": "bytes32",
          "name": "role",
          "type": "bytes32"
        },
        {
          "internalType": "address",
          "name": "account",
          "type": "address"
        }
      ],
      "name": "grantRole",
      "outputs": [],
      "stateMutability": "nonpayable",
      "type": "function"
    },
    {
      "inputs": [
        {
          "internalType": "bytes32",
          "name": "role",
          "type": "bytes32"
        },
        {
          "internalType": "address",
          "name": "account",
          "type": "address"
        }
      ],
      "name": "hasRole",
      "outputs": [
        {
          "internalType": "bool",
          "name": "",
          "type": "bool"
        }
      ],
      "stateMutability": "view",
      "type": "function"
    },
    {
      "inputs": [
        {
          "internalType": "address",
          "name": "owner",
          "type": "address"
        },
        {
          "internalType": "address",
          "name": "operator",
          "type": "address"
        }
      ],
      "name": "isApprovedForAll",
      "outputs": [
        {
          "internalType": "bool",
          "name": "",
          "type": "bool"
        }
      ],
      "stateMutability": "view",
      "type": "function"
    },
    {
      "inputs": [],
      "name": "name",
      "outputs": [
        {
          "internalType": "string",
          "name": "",
          "type": "string"
        }
      ],
      "stateMutability": "view",
      "type": "function"
    },
    {
      "inputs": [],
      "name": "owner",
      "outputs": [
        {
          "internalType": "address",
          "name": "",
          "type": "address"
        }
      ],
      "stateMutability": "view",
      "type": "function"
    },
    {
      "inputs": [
        {
          "internalType": "uint256",
          "name": "tokenId",
          "type": "uint256"
        }
      ],
      "name": "ownerOf",
      "outputs": [
        {
          "internalType": "address",
          "name": "",
          "type": "address"
        }
      ],
      "stateMutability": "view",
      "type": "function"
    },
    {
      "inputs": [],
      "name": "property",
      "outputs": [
        {
          "internalType": "string",
          "name": "uri",
          "type": "string"
        },
        {
          "internalType": "uint256",
          "name": "rentPerDay",
          "type": "uint256"
        },
        {
          "internalType": "string",
          "name": "description",
          "type": "string"
        },
        {
          "internalType": "address",
          "name": "propertyOwner",
          "type": "address"
        },
        {
          "internalType": "enum PropertyType",
          "name": "propertyType",
          "type": "uint8"
        },
        {
          "internalType": "string",
          "name": "realWorldAddress",
          "type": "string"
        },
        {
          "internalType": "address",
          "name": "blockchainAddress",
          "type": "address"
        }
      ],
      "stateMutability": "view",
      "type": "function"
    },
    {
      "inputs": [],
      "name": "renounceOwnership",
      "outputs": [],
      "stateMutability": "nonpayable",
      "type": "function"
    },
    {
      "inputs": [
        {
          "internalType": "bytes32",
          "name": "role",
          "type": "bytes32"
        },
        {
          "internalType": "address",
          "name": "account",
          "type": "address"
        }
      ],
      "name": "renounceRole",
      "outputs": [],
      "stateMutability": "nonpayable",
      "type": "function"
    },
    {
      "inputs": [
        {
          "internalType": "bytes32",
          "name": "role",
          "type": "bytes32"
        },
        {
          "internalType": "address",
          "name": "account",
          "type": "address"
        }
      ],
      "name": "revokeRole",
      "outputs": [],
      "stateMutability": "nonpayable",
      "type": "function"
    },
    {
      "inputs": [
        {
          "internalType": "address",
          "name": "from",
          "type": "address"
        },
        {
          "internalType": "address",
          "name": "to",
          "type": "address"
        },
        {
          "internalType": "uint256",
          "name": "tokenId",
          "type": "uint256"
        }
      ],
      "name": "safeTransferFrom",
      "outputs": [],
      "stateMutability": "nonpayable",
      "type": "function"
    },
    {
      "inputs": [
        {
          "internalType": "address",
          "name": "from",
          "type": "address"
        },
        {
          "internalType": "address",
          "name": "to",
          "type": "address"
        },
        {
          "internalType": "uint256",
          "name": "tokenId",
          "type": "uint256"
        },
        {
          "internalType": "bytes",
          "name": "data",
          "type": "bytes"
        }
      ],
      "name": "safeTransferFrom",
      "outputs": [],
      "stateMutability": "nonpayable",
      "type": "function"
    },
    {
      "inputs": [
        {
          "internalType": "address",
          "name": "operator",
          "type": "address"
        },
        {
          "internalType": "bool",
          "name": "approved",
          "type": "bool"
        }
      ],
      "name": "setApprovalForAll",
      "outputs": [],
      "stateMutability": "nonpayable",
      "type": "function"
    },
    {
      "inputs": [
        {
          "internalType": "bytes4",
          "name": "interfaceId",
          "type": "bytes4"
        }
      ],
      "name": "supportsInterface",
      "outputs": [
        {
          "internalType": "bool",
          "name": "",
          "type": "bool"
        }
      ],
      "stateMutability": "view",
      "type": "function"
    },
    {
      "inputs": [],
      "name": "symbol",
      "outputs": [
        {
          "internalType": "string",
          "name": "",
          "type": "string"
        }
      ],
      "stateMutability": "view",
      "type": "function"
    },
    {
      "inputs": [
        {
          "internalType": "uint256",
          "name": "tokenId",
          "type": "uint256"
        }
      ],
      "name": "tokenURI",
      "outputs": [
        {
          "internalType": "string",
          "name": "",
          "type": "string"
        }
      ],
      "stateMutability": "view",
      "type": "function"
    },
    {
      "inputs": [
        {
          "internalType": "address",
          "name": "from",
          "type": "address"
        },
        {
          "internalType": "address",
          "name": "to",
          "type": "address"
        },
        {
          "internalType": "uint256",
          "name": "tokenId",
          "type": "uint256"
        }
      ],
      "name": "transferFrom",
      "outputs": [],
      "stateMutability": "nonpayable",
      "type": "function"
    },
    {
      "inputs": [
        {
          "internalType": "address",
          "name": "newOwner",
          "type": "address"
        }
      ],
      "name": "transferOwnership",
      "outputs": [],
      "stateMutability": "nonpayable",
      "type": "function"
    },
    {
      "inputs": [
        {
          "internalType": "uint256",
          "name": "_rentPerDay",
          "type": "uint256"
        }
      ],
      "name": "updateRentPerDay",
      "outputs": [],
      "stateMutability": "nonpayable",
      "type": "function"
    },
    {
      "inputs": [
        {
          "internalType": "string",
          "name": "_uri",
          "type": "string"
        }
      ],
      "name": "updateUri",
      "outputs": [],
      "stateMutability": "nonpayable",
      "type": "function"
    }
  ],
  "bytecode": {
    "object": "0x60806040523480156200001157600080fd5b5060405162002b6e38038062002b6e83398101604081905262000034916200035d565b6040518060400160405280600781526020016626bcaa37b5b2b760c91b815250604051806040016040528060038152602001624d544b60e81b8152508160009081620000819190620004b3565b506001620000908282620004b3565b505050620000ad620000a76200018060201b60201c565b62000184565b6009620000bb8782620004b3565b50600a859055600b620000cf8582620004b3565b50600c80546001600160a01b0384166001600160a01b03198216811783558592916001600160a81b03191617600160a01b8360028111156200011557620001156200057f565b0217905550600d620001288282620004b3565b50600e80546001600160a01b0319163017905562000148600083620001d6565b620001747fb19546dff01e856fb3f010c267a7b1c60363cf8a4664e21cc89c26224620214e83620001d6565b50505050505062000595565b3390565b600780546001600160a01b038381166001600160a01b0319831681179093556040519116919082907f8be0079c531659141344cd1fd0a4f28419497f9722a3daafe3b4186f6b6457e090600090a35050565b60008281526008602090815260408083206001600160a01b038516845290915290205460ff16620002775760008281526008602090815260408083206001600160a01b03851684529091529020805460ff19166001179055620002363390565b6001600160a01b0316816001600160a01b0316837f2f8788117e7eff1d82e926ec794901d17c78024a50270940304540a733656f0d60405160405180910390a45b5050565b634e487b7160e01b600052604160045260246000fd5b600082601f830112620002a357600080fd5b81516001600160401b0380821115620002c057620002c06200027b565b604051601f8301601f19908116603f01168101908282118183101715620002eb57620002eb6200027b565b816040528381526020925086838588010111156200030857600080fd5b600091505b838210156200032c57858201830151818301840152908201906200030d565b600093810190920192909252949350505050565b80516001600160a01b03811681146200035857600080fd5b919050565b60008060008060008060c087890312156200037757600080fd5b86516001600160401b03808211156200038f57600080fd5b6200039d8a838b0162000291565b9750602089015196506040890151915080821115620003bb57600080fd5b620003c98a838b0162000291565b95506060890151915060038210620003e057600080fd5b819450620003f160808a0162000340565b935060a08901519150808211156200040857600080fd5b506200041789828a0162000291565b9150509295509295509295565b600181811c908216806200043957607f821691505b6020821081036200045a57634e487b7160e01b600052602260045260246000fd5b50919050565b601f821115620004ae57600081815260208120601f850160051c81016020861015620004895750805b601f850160051c820191505b81811015620004aa5782815560010162000495565b5050505b505050565b81516001600160401b03811115620004cf57620004cf6200027b565b620004e781620004e0845462000424565b8462000460565b602080601f8311600181146200051f5760008415620005065750858301515b600019600386901b1c1916600185901b178555620004aa565b600085815260208120601f198616915b8281101562000550578886015182559484019460019091019084016200052f565b50858210156200056f5787850151600019600388901b60f8161c191681555b5050505050600190811b01905550565b634e487b7160e01b600052602160045260246000fd5b6125c980620005a56000396000f3fe6080604052600436106101c25760003560e01c806370a08231116100f7578063a22cb46511610095578063d547741f11610064578063d547741f1461050e578063e58378bb1461052e578063e985e9c514610550578063f2fde38b1461059957600080fd5b8063a22cb4651461048e578063ad8d5eff146104ae578063b88d4fde146104ce578063c87b56dd146104ee57600080fd5b80638da5cb5b116100d15780638da5cb5b1461042657806391d148541461044457806395d89b4114610464578063a217fddf1461047957600080fd5b806370a08231146103d1578063715018a6146103f15780638a53becf1461040657600080fd5b8063248a9ca31161016457806336568abe1161013e57806336568abe1461035157806342842e0e14610371578063570b3c6a146103915780636352211e146103b157600080fd5b8063248a9ca3146102e05780632f2ff15d1461031e578063358dc19c1461033e57600080fd5b8063095ea7b3116101a0578063095ea7b314610256578063114d8be114610278578063176fd3f01461029857806323b872dd146102c057600080fd5b806301ffc9a7146101c757806306fdde03146101fc578063081812fc1461021e575b600080fd5b3480156101d357600080fd5b506101e76101e2366004611e37565b6105b9565b60405190151581526020015b60405180910390f35b34801561020857600080fd5b506102116105ca565b6040516101f39190611ea4565b34801561022a57600080fd5b5061023e610239366004611eb7565b61065c565b6040516001600160a01b0390911681526020016101f3565b34801561026257600080fd5b50610276610271366004611eec565b610683565b005b34801561028457600080fd5b50610276610293366004611f16565b61079d565b3480156102a457600080fd5b506102ad6107d1565b6040516101f39796959493929190611f31565b3480156102cc57600080fd5b506102766102db366004611fbd565b6109b2565b3480156102ec57600080fd5b506103106102fb366004611eb7565b60009081526008602052604090206001015490565b6040519081526020016101f3565b34801561032a57600080fd5b50610276610339366004611ff9565b6109e3565b61027661034c366004611eb7565b610a08565b34801561035d57600080fd5b5061027661036c366004611ff9565b610be6565b34801561037d57600080fd5b5061027661038c366004611fbd565b610c60565b34801561039d57600080fd5b506102766103ac3660046120b1565b610c7b565b3480156103bd57600080fd5b5061023e6103cc366004611eb7565b610c9f565b3480156103dd57600080fd5b506103106103ec366004611f16565b610cff565b3480156103fd57600080fd5b50610276610d85565b34801561041257600080fd5b50610276610421366004611eb7565b610d99565b34801561043257600080fd5b506007546001600160a01b031661023e565b34801561045057600080fd5b506101e761045f366004611ff9565b610db7565b34801561047057600080fd5b50610211610de2565b34801561048557600080fd5b50610310600081565b34801561049a57600080fd5b506102766104a93660046120fa565b610df1565b3480156104ba57600080fd5b506102766104c9366004611ff9565b610dfc565b3480156104da57600080fd5b506102766104e9366004612136565b610ec7565b3480156104fa57600080fd5b50610211610509366004611eb7565b610eff565b34801561051a57600080fd5b50610276610529366004611ff9565b610f0a565b34801561053a57600080fd5b5061031060008051602061257483398151915281565b34801561055c57600080fd5b506101e761056b3660046121b2565b6001600160a01b03918216600090815260056020908152604080832093909416825291909152205460ff1690565b3480156105a557600080fd5b506102766105b4366004611f16565b610f2f565b60006105c482610fa8565b92915050565b6060600080546105d9906121dc565b80601f0160208091040260200160405190810160405280929190818152602001828054610605906121dc565b80156106525780601f1061062757610100808354040283529160200191610652565b820191906000526020600020905b81548152906001019060200180831161063557829003601f168201915b5050505050905090565b600061066782610fcd565b506000908152600460205260409020546001600160a01b031690565b600061068e82610c9f565b9050806001600160a01b0316836001600160a01b0316036107005760405162461bcd60e51b815260206004820152602160248201527f4552433732313a20617070726f76616c20746f2063757272656e74206f776e656044820152603960f91b60648201526084015b60405180910390fd5b336001600160a01b038216148061071c575061071c813361056b565b61078e5760405162461bcd60e51b815260206004820152603d60248201527f4552433732313a20617070726f76652063616c6c6572206973206e6f7420746f60448201527f6b656e206f776e6572206f7220617070726f76656420666f7220616c6c00000060648201526084016106f7565b610798838361102c565b505050565b6000805160206125748339815191526107b58161109a565b6107cd600080516020612574833981519152836110a4565b5050565b6009805481906107e0906121dc565b80601f016020809104026020016040519081016040528092919081815260200182805461080c906121dc565b80156108595780601f1061082e57610100808354040283529160200191610859565b820191906000526020600020905b81548152906001019060200180831161083c57829003601f168201915b505050505090806001015490806002018054610874906121dc565b80601f01602080910402602001604051908101604052809291908181526020018280546108a0906121dc565b80156108ed5780601f106108c2576101008083540402835291602001916108ed565b820191906000526020600020905b8154815290600101906020018083116108d057829003601f168201915b50505050600383015460048401805493946001600160a01b03831694600160a01b90930460ff16935091610920906121dc565b80601f016020809104026020016040519081016040528092919081815260200182805461094c906121dc565b80156109995780601f1061096e57610100808354040283529160200191610999565b820191906000526020600020905b81548152906001019060200180831161097c57829003601f168201915b505050600590930154919250506001600160a01b031687565b6109bc338261112a565b6109d85760405162461bcd60e51b81526004016106f790612216565b6107988383836111a9565b6000828152600860205260409020600101546109fe8161109a565b61079883836110a4565b600a543414610a7157604080518281523360208201527f47288423cb506fa0f355681f4981a84ed3da5951b40e3c674f32794480c637a8910160405180910390a160405163cd16fdcb60e01b8152600481018290523360248201523460448201526064016106f7565b6000818152600f6020526040902054600160a01b900460ff161515600103610aed57604080518281523360208201527f47288423cb506fa0f355681f4981a84ed3da5951b40e3c674f32794480c637a8910160405180910390a160405163c7a60e8560e01b8152600481018290523360248201526044016106f7565b6000610af860105490565b9050610b08601080546001019055565b610b12338261130d565b610ba98160096000018054610b26906121dc565b80601f0160208091040260200160405190810160405280929190818152602001828054610b52906121dc565b8015610b9f5780601f10610b7457610100808354040283529160200191610b9f565b820191906000526020600020905b815481529060010190602001808311610b8257829003601f168201915b5050505050611327565b604080518381523360208201527fdf20c3c622ce9a1254251ce77bbabab09296abb1c4ce96f3eb9d65e2fc66286691015b60405180910390a15050565b6001600160a01b0381163314610c565760405162461bcd60e51b815260206004820152602f60248201527f416363657373436f6e74726f6c3a2063616e206f6e6c792072656e6f756e636560448201526e103937b632b9903337b91039b2b63360891b60648201526084016106f7565b6107cd82826113eb565b61079883838360405180602001604052806000815250610ec7565b600080516020612574833981519152610c938161109a565b600961079883826122b1565b6000818152600260205260408120546001600160a01b0316806105c45760405162461bcd60e51b8152602060048201526018602482015277115490cdcc8c4e881a5b9d985b1a59081d1bdad95b88125160421b60448201526064016106f7565b60006001600160a01b038216610d695760405162461bcd60e51b815260206004820152602960248201527f4552433732313a2061646472657373207a65726f206973206e6f7420612076616044820152683634b21037bbb732b960b91b60648201526084016106f7565b506001600160a01b031660009081526003602052604090205490565b610d8d611452565b610d9760006114ac565b565b600080516020612574833981519152610db18161109a565b50600a55565b60009182526008602090815260408084206001600160a01b0393909316845291905290205460ff1690565b6060600180546105d9906121dc565b6107cd3383836114fe565b6000828152600f60205260409020546001600160a01b03808316911603610e5b57604080518381526001600160a01b03831660208201527f1a777a4e69f842f69af228bdecb2e58e1ab9d68e3c8694533ddb6ff9dd243f829101610bda565b604080518381526001600160a01b03831660208201527fed2f35407cce86829c88c26e5cbee5c2d7579fe9dfaa01ba3a5a2a4ac289d453910160405180910390a1604051631d680fdf60e11b8152600481018390526001600160a01b03821660248201526044016106f7565b610ed1338361112a565b610eed5760405162461bcd60e51b81526004016106f790612216565b610ef9848484846115cc565b50505050565b60606105c4826115ff565b600082815260086020526040902060010154610f258161109a565b61079883836113eb565b610f37611452565b6001600160a01b038116610f9c5760405162461bcd60e51b815260206004820152602660248201527f4f776e61626c653a206e6577206f776e657220697320746865207a65726f206160448201526564647265737360d01b60648201526084016106f7565b610fa5816114ac565b50565b60006001600160e01b03198216637965db0b60e01b14806105c457506105c482611707565b6000818152600260205260409020546001600160a01b0316610fa55760405162461bcd60e51b8152602060048201526018602482015277115490cdcc8c4e881a5b9d985b1a59081d1bdad95b88125160421b60448201526064016106f7565b600081815260046020526040902080546001600160a01b0319166001600160a01b038416908117909155819061106182610c9f565b6001600160a01b03167f8c5be1e5ebec7d5bd14f71427d1e84f3dd0314c0f7b2291e5b200ac8c7c3b92560405160405180910390a45050565b610fa5813361172c565b6110ae8282610db7565b6107cd5760008281526008602090815260408083206001600160a01b03851684529091529020805460ff191660011790556110e63390565b6001600160a01b0316816001600160a01b0316837f2f8788117e7eff1d82e926ec794901d17c78024a50270940304540a733656f0d60405160405180910390a45050565b60008061113683610c9f565b9050806001600160a01b0316846001600160a01b0316148061117d57506001600160a01b0380821660009081526005602090815260408083209388168352929052205460ff165b806111a15750836001600160a01b03166111968461065c565b6001600160a01b0316145b949350505050565b826001600160a01b03166111bc82610c9f565b6001600160a01b0316146111e25760405162461bcd60e51b81526004016106f790612371565b6001600160a01b0382166112445760405162461bcd60e51b8152602060048201526024808201527f4552433732313a207472616e7366657220746f20746865207a65726f206164646044820152637265737360e01b60648201526084016106f7565b826001600160a01b031661125782610c9f565b6001600160a01b03161461127d5760405162461bcd60e51b81526004016106f790612371565b600081815260046020908152604080832080546001600160a01b03199081169091556001600160a01b0387811680865260038552838620805460001901905590871680865283862080546001019055868652600290945282852080549092168417909155905184937fddf252ad1be2c89b69c2b068fc378daa952ba7f163c4a11628f55a4df523b3ef91a4505050565b6107cd828260405180602001604052806000815250611785565b6000828152600260205260409020546001600160a01b03166113a25760405162461bcd60e51b815260206004820152602e60248201527f45524337323155524953746f726167653a2055524920736574206f66206e6f6e60448201526d32bc34b9ba32b73a103a37b5b2b760911b60648201526084016106f7565b60008281526006602052604090206113ba82826122b1565b506040518281527ff8e1a15aba9398e019f0b49df1a4fde98ee17ae345cb5f6b5e2c27f5033e8ce790602001610bda565b6113f58282610db7565b156107cd5760008281526008602090815260408083206001600160a01b0385168085529252808320805460ff1916905551339285917ff6391f5c32d9c69d2a47ea670b442974b53935d1edc7fd64eb21e047a839171b9190a45050565b6007546001600160a01b03163314610d975760405162461bcd60e51b815260206004820181905260248201527f4f776e61626c653a2063616c6c6572206973206e6f7420746865206f776e657260448201526064016106f7565b600780546001600160a01b038381166001600160a01b0319831681179093556040519116919082907f8be0079c531659141344cd1fd0a4f28419497f9722a3daafe3b4186f6b6457e090600090a35050565b816001600160a01b0316836001600160a01b03160361155f5760405162461bcd60e51b815260206004820152601960248201527f4552433732313a20617070726f766520746f2063616c6c65720000000000000060448201526064016106f7565b6001600160a01b03838116600081815260056020908152604080832094871680845294825291829020805460ff191686151590811790915591519182527f17307eab39ab6107e8899845ad3d59bd9653f200f220920489ca2b5937696c31910160405180910390a3505050565b6115d78484846111a9565b6115e3848484846117b8565b610ef95760405162461bcd60e51b81526004016106f7906123b6565b606061160a82610fcd565b60008281526006602052604081208054611623906121dc565b80601f016020809104026020016040519081016040528092919081815260200182805461164f906121dc565b801561169c5780601f106116715761010080835404028352916020019161169c565b820191906000526020600020905b81548152906001019060200180831161167f57829003601f168201915b5050505050905060006116ba60408051602081019091526000815290565b905080516000036116cc575092915050565b8151156116fe5780826040516020016116e6929190612408565b60405160208183030381529060405292505050919050565b6111a1846118b9565b60006001600160e01b03198216632483248360e11b14806105c457506105c48261192d565b6117368282610db7565b6107cd576117438161197d565b61174e83602061198f565b60405160200161175f929190612437565b60408051601f198184030181529082905262461bcd60e51b82526106f791600401611ea4565b61178f8383611b2b565b61179c60008484846117b8565b6107985760405162461bcd60e51b81526004016106f7906123b6565b60006001600160a01b0384163b156118ae57604051630a85bd0160e11b81526001600160a01b0385169063150b7a02906117fc9033908990889088906004016124ac565b6020604051808303816000875af1925050508015611837575060408051601f3d908101601f19168201909252611834918101906124e9565b60015b611894573d808015611865576040519150601f19603f3d011682016040523d82523d6000602084013e61186a565b606091505b50805160000361188c5760405162461bcd60e51b81526004016106f7906123b6565b805181602001fd5b6001600160e01b031916630a85bd0160e11b1490506111a1565b506001949350505050565b60606118c482610fcd565b60006118db60408051602081019091526000815290565b905060008151116118fb5760405180602001604052806000815250611926565b8061190584611cb6565b604051602001611916929190612408565b6040516020818303038152906040525b9392505050565b60006001600160e01b031982166380ac58cd60e01b148061195e57506001600160e01b03198216635b5e139f60e01b145b806105c457506301ffc9a760e01b6001600160e01b03198316146105c4565b60606105c46001600160a01b03831660145b6060600061199e83600261251c565b6119a9906002612533565b67ffffffffffffffff8111156119c1576119c1612025565b6040519080825280601f01601f1916602001820160405280156119eb576020820181803683370190505b509050600360fc1b81600081518110611a0657611a06612546565b60200101906001600160f81b031916908160001a905350600f60fb1b81600181518110611a3557611a35612546565b60200101906001600160f81b031916908160001a9053506000611a5984600261251c565b611a64906001612533565b90505b6001811115611adc576f181899199a1a9b1b9c1cb0b131b232b360811b85600f1660108110611a9857611a98612546565b1a60f81b828281518110611aae57611aae612546565b60200101906001600160f81b031916908160001a90535060049490941c93611ad58161255c565b9050611a67565b5083156119265760405162461bcd60e51b815260206004820181905260248201527f537472696e67733a20686578206c656e67746820696e73756666696369656e7460448201526064016106f7565b6001600160a01b038216611b815760405162461bcd60e51b815260206004820181905260248201527f4552433732313a206d696e7420746f20746865207a65726f206164647265737360448201526064016106f7565b6000818152600260205260409020546001600160a01b031615611be65760405162461bcd60e51b815260206004820152601c60248201527f4552433732313a20746f6b656e20616c7265616479206d696e7465640000000060448201526064016106f7565b6000818152600260205260409020546001600160a01b031615611c4b5760405162461bcd60e51b815260206004820152601c60248201527f4552433732313a20746f6b656e20616c7265616479206d696e7465640000000060448201526064016106f7565b6001600160a01b038216600081815260036020908152604080832080546001019055848352600290915280822080546001600160a01b0319168417905551839291907fddf252ad1be2c89b69c2b068fc378daa952ba7f163c4a11628f55a4df523b3ef908290a45050565b60606000611cc383611d49565b600101905060008167ffffffffffffffff811115611ce357611ce3612025565b6040519080825280601f01601f191660200182016040528015611d0d576020820181803683370190505b5090508181016020015b600019016f181899199a1a9b1b9c1cb0b131b232b360811b600a86061a8153600a8504945084611d1757509392505050565b60008072184f03e93ff9f4daa797ed6e38ed64bf6a1f0160401b8310611d885772184f03e93ff9f4daa797ed6e38ed64bf6a1f0160401b830492506040015b6d04ee2d6d415b85acef81000000008310611db4576d04ee2d6d415b85acef8100000000830492506020015b662386f26fc100008310611dd257662386f26fc10000830492506010015b6305f5e1008310611dea576305f5e100830492506008015b6127108310611dfe57612710830492506004015b60648310611e10576064830492506002015b600a83106105c45760010192915050565b6001600160e01b031981168114610fa557600080fd5b600060208284031215611e4957600080fd5b813561192681611e21565b60005b83811015611e6f578181015183820152602001611e57565b50506000910152565b60008151808452611e90816020860160208601611e54565b601f01601f19169290920160200192915050565b6020815260006119266020830184611e78565b600060208284031215611ec957600080fd5b5035919050565b80356001600160a01b0381168114611ee757600080fd5b919050565b60008060408385031215611eff57600080fd5b611f0883611ed0565b946020939093013593505050565b600060208284031215611f2857600080fd5b61192682611ed0565b60e081526000611f4460e083018a611e78565b8860208401528281036040840152611f5c8189611e78565b6001600160a01b03888116606086015290915060038710611f8d57634e487b7160e01b600052602160045260246000fd5b86608085015283820360a0850152611fa58287611e78565b925080851660c0850152505098975050505050505050565b600080600060608486031215611fd257600080fd5b611fdb84611ed0565b9250611fe960208501611ed0565b9150604084013590509250925092565b6000806040838503121561200c57600080fd5b8235915061201c60208401611ed0565b90509250929050565b634e487b7160e01b600052604160045260246000fd5b600067ffffffffffffffff8084111561205657612056612025565b604051601f8501601f19908116603f0116810190828211818310171561207e5761207e612025565b8160405280935085815286868601111561209757600080fd5b858560208301376000602087830101525050509392505050565b6000602082840312156120c357600080fd5b813567ffffffffffffffff8111156120da57600080fd5b8201601f810184136120eb57600080fd5b6111a18482356020840161203b565b6000806040838503121561210d57600080fd5b61211683611ed0565b91506020830135801515811461212b57600080fd5b809150509250929050565b6000806000806080858703121561214c57600080fd5b61215585611ed0565b935061216360208601611ed0565b925060408501359150606085013567ffffffffffffffff81111561218657600080fd5b8501601f8101871361219757600080fd5b6121a68782356020840161203b565b91505092959194509250565b600080604083850312156121c557600080fd5b6121ce83611ed0565b915061201c60208401611ed0565b600181811c908216806121f057607f821691505b60208210810361221057634e487b7160e01b600052602260045260246000fd5b50919050565b6020808252602d908201527f4552433732313a2063616c6c6572206973206e6f7420746f6b656e206f776e6560408201526c1c881bdc88185c1c1c9bdd9959609a1b606082015260800190565b601f82111561079857600081815260208120601f850160051c8101602086101561228a5750805b601f850160051c820191505b818110156122a957828155600101612296565b505050505050565b815167ffffffffffffffff8111156122cb576122cb612025565b6122df816122d984546121dc565b84612263565b602080601f83116001811461231457600084156122fc5750858301515b600019600386901b1c1916600185901b1785556122a9565b600085815260208120601f198616915b8281101561234357888601518255948401946001909101908401612324565b50858210156123615787850151600019600388901b60f8161c191681555b5050505050600190811b01905550565b60208082526025908201527f4552433732313a207472616e736665722066726f6d20696e636f72726563742060408201526437bbb732b960d91b606082015260800190565b60208082526032908201527f4552433732313a207472616e7366657220746f206e6f6e20455243373231526560408201527131b2b4bb32b91034b6b83632b6b2b73a32b960711b606082015260800190565b6000835161241a818460208801611e54565b83519083019061242e818360208801611e54565b01949350505050565b7f416363657373436f6e74726f6c3a206163636f756e742000000000000000000081526000835161246f816017850160208801611e54565b7001034b99036b4b9b9b4b733903937b6329607d1b60179184019182015283516124a0816028840160208801611e54565b01602801949350505050565b6001600160a01b03858116825284166020820152604081018390526080606082018190526000906124df90830184611e78565b9695505050505050565b6000602082840312156124fb57600080fd5b815161192681611e21565b634e487b7160e01b600052601160045260246000fd5b80820281158282048414176105c4576105c4612506565b808201808211156105c4576105c4612506565b634e487b7160e01b600052603260045260246000fd5b60008161256b5761256b612506565b50600019019056feb19546dff01e856fb3f010c267a7b1c60363cf8a4664e21cc89c26224620214ea26469706673582212203e72b25c51a788fda9a2dbb729cc794bc1a221b5dcdd83145a4b1d76c63596be64736f6c63430008140033",
    "linkReferences": {}
  },
  "methodIdentifiers": {
    "DEFAULT_ADMIN_ROLE()": "a217fddf",
    "OWNER_ROLE()": "e58378bb",
    "addNewOwner(address)": "114d8be1",
    "approve(address,uint256)": "095ea7b3",
    "balanceOf(address)": "70a08231",
    "booking(uint256)": "358dc19c",
    "checkIn(uint256,address)": "ad8d5eff",
    "getApproved(uint256)": "081812fc",
    "getRoleAdmin(bytes32)": "248a9ca3",
    "grantRole(bytes32,address)": "2f2ff15d",
    "hasRole(bytes32,address)": "91d14854",
    "isApprovedForAll(address,address)": "e985e9c5",
    "name()": "06fdde03",
    "owner()": "8da5cb5b",
    "ownerOf(uint256)": "6352211e",
    "property()": "176fd3f0",
    "renounceOwnership()": "715018a6",
    "renounceRole(bytes32,address)": "36568abe",
    "revokeRole(bytes32,address)": "d547741f",
    "safeTransferFrom(address,address,uint256)": "42842e0e",
    "safeTransferFrom(address,address,uint256,bytes)": "b88d4fde",
    "setApprovalForAll(address,bool)": "a22cb465",
    "supportsInterface(bytes4)": "01ffc9a7",
    "symbol()": "95d89b41",
    "tokenURI(uint256)": "c87b56dd",
    "transferFrom(address,address,uint256)": "23b872dd",
    "transferOwnership(address)": "f2fde38b",
    "updateRentPerDay(uint256)": "8a53becf",
    "updateUri(string)": "570b3c6a"
  },
  "id": 38
}